:100000000C9440000C9453050C9401070C940107C8
:100010000C9401070C9401070C9401070C94010740
:100020000C9401070C94ED050C9401070C94010746
:100030000C9401070C9401070C9401070C94010720
:100040000C9401070C9401070C9401070C94010710
:100050000C9401070C9401070C9401070C94010700
:100060000C9401070C940107CF04D704DF04E704C4
:10007000EF0406050605F704FF040100023E8000B8
:1000800011241FBECFEFD8E0DEBFCDBFEAE7F0E01E
:1000900040E017C0B591A59135912591059107FDD7
:1000A0000CC095918591EF01F92FE82F05900D92E5
:1000B000A217B307D9F7FE0104C01D92A217B30718
:1000C000E1F7EF37F40731F70E9478060C946800E7
:0400D000F894FFCFD2
:1000D400EF92FF920F931F93CF93DF93009103014D
:1000E400E02EF12C6091050170910601072E000CA1
:1000F400880B990B0E9418052AE037ED43E25CE374
:100104000E94F606F701EE0FFF1FEE0DFF1DEE0F26
:10011400FF1FEE0FFF1FE55FFE4F60837183828335
:10012400938310920601109205011482158216829F
:10013400178210E01AC0E701CC0FDD1FCE0DDF1DC2
:10014400CC0FDD1FCC0FDD1FC55FDE4F2881398149
:100154004A815B816C817D818E819F810E94C5066D
:100164006C837D838E839F831F5F193120F3E701A6
:10017400CC0FDD1FCE0DDF1DCC0FDD1FCC0FDD1F1F
:10018400C55FDE4F20E030E048EC51E46C817D81B6
:100194008E819F810E94F6066C837D838E839F836C
:1001A4000831F8F497012F5F3F4FF901EE0FFF1F5D
:1001B400E20FF31FEE0FFF1FEE0FFF1FE55FFE4F71
:1001C40024813581468157810E94C40620E030E0B5
:1001D40048EC51E40E94F606688779878A879B87F2
:1001E4001FC020910F0130911001409111015091D5
:1001F40012010E94C40620E030E048EC51E40E9461
:10020400F606F701EE0FFF1FEE0DFF1DEE0FFF1FA9
:10021400EE0FFF1FE55FFE4F60877187828793872C
:1002240080913902811117C0F701EE0FFF1FDF0122
:10023400AE0DBF1DAA0FBB1FAA0FBB1FA55FBE4FEC
:1002440014961D921D921D921C921797FD01108603
:100254001186128613860F5F00930301093128F07B
:1002640081E08093390210920301DF91CF911F91B5
:080274000F91FF90EF90089537
:10027C00CF92DF92EF92FF92CF93DF93C09109015F
:10028C00D0E080910001BE01681B7109072E000CA3
:10029C00880B990B0E9418052DEC3CEC4CE45DE3AB
:1002AC000E94FA0620913A0230913B0240913C02A6
:1002BC0050913D020E94C50620E030E04EEF52EC1A
:1002CC000E94EC06882304F0BE0160587109072EC9
:1002DC00000C880B990B0E9418056B017C01609334
:1002EC003A0270933B0280933C0290933D0220E0D3
:1002FC0030E0A9010E94EC068823B4F4C701B601D2
:10030C0090580E94BE0570938B0060938A0041E068
:10031C0050E064E084E40E94CF0140E050E060E0F3
:10032C0082E40E94CF012EC020E030E0A901C70179
:10033C00B6010E94F1061816ACF4C701B6010E9472
:10034C00BE0570938B0060938A0040E050E064E03F
:10035C0084E40E94CF0141E050E060E082E40E941E
:10036C00CF0110C010928B0010928A0040E050E038
:10037C0064E084E40E94CF0140E050E060E082E45D
:10038C000E94CF01DF91CF91FF90EF90DF90CF9043
:02039C000895C2
:10039E00833481F1843409F457C0823409F07BC070
:1003AE004130510561F425B181E090E0062E02C086
:1003BE00880F991F0A94E2F7822B85B91BC0423031
:1003CE00510561F425B181E090E0062E02C0880F40
:1003DE00991F0A94E2F7822785B90CC025B181E0F6
:1003EE0090E0062E02C0880F991F0A94E2F78095BE
:1003FE00822385B94130510561F428B181E090E046
:10040E00062E02C0880F991F0A94E2F7822B88B934
:10041E001BC04230510561F428B181E090E0062EF8
:10042E0002C0880F991F0A94E2F7822788B90CC080
:10043E0028B181E090E0062E02C0880F991F0A9421
:10044E00E2F78095822388B94130510559F42BB1DA
:10045E0081E090E002C0880F991F6A95E2F7822B27
:10046E008BB908954230510559F42BB181E090E0DB
:10047E0002C0880F991F6A95E2F782278BB90895FB
:10048E002BB181E090E002C0880F991F6A95E2F7C8
:08049E00809582238BB90895BB
:1004A60044E050E061E084E40E94020444E050E04D
:1004B60060E084E40E94020444E050E061E082E4EB
:1004C6000E94020444E050E060E082E40E940204DC
:1004D60044E050E064E084E40E94020444E050E01A
:1004E60062E082E40E94020443E050E064E083E4B8
:1004F6000E94020443E050E062E083E40E940204AA
:1005060043E050E063E083E40E94020443E050E0ED
:1005160061E083E40E94020443E050E060E083E48B
:100526000E94020443E050E067E083E40E94020474
:1005360043E050E067E084E40E94020444E050E0B7
:1005460065E084E40E94020444E050E066E084E44E
:100556000E94020443E050E063E084E40E94020447
:1005660043E050E062E084E40E940204E9E6F0E041
:0E0576008081836080838DB381608DBB08958A
:1005840010C00E94D20658F00E94CB0640F029F415
:100594005F3F29F00C94E00651110C94DA060C9498
:1005A400FE060E943E0668F39923B1F3552391F3A6
:1005B400951B550BBB27AA2762177307840738F0CE
:1005C4009F5F5F4F220F331F441FAA1FA9F335D02B
:1005D4000E2E3AF0E0E832D091505040E695001CDF
:1005E400CAF72BD0FE2F29D0660F771F881FBB1F99
:1005F400261737074807AB07B0E809F0BB0B802D77
:10060400BF01FF2793585F4F3AF09E3F510578F0A2
:100614000C94E0060C94DA065F3FE4F3983ED4F3BE
:10062400869577956795B795F7959F5FC9F7880F76
:10063400911D9695879597F90895E1E0660F771FC8
:10064400881FBB1F621773078407BA0720F0621B59
:0E065400730B840BBA0BEE1F88F7E095089528
:100662000FC00E94CB0638F00E94D20620F09523DC
:1006720011F00C94E0060C94FE0611240C94DA0698
:100682000E943E0670F3959FC1F3950F50E0551FEF
:10069200629FF001729FBB27F00DB11D639FAA27D5
:1006A200F00DB11DAA1F649F6627B00DA11D661F24
:1006B200829F2227B00DA11D621F739FB00DA11D45
:1006C200621F839FA00D611D221F749F3327A00DFF
:1006D200611D231F849F600D211D822F762F6A2F9B
:1006E20011249F5750409AF0F1F088234AF0EE0F00
:1006F200FF1FBB1F661F771F881F91505040A9F72D
:100702009E3F510580F00C94E0060C94DA065F3FA0
:10071200E4F3983ED4F3869577956795B795F79568
:10072200E7959F5FC1F7FE2B880F911D96958795E0
:0407320097F9089596
:1007360011C00E94CB0638F00E94D20620F039F490
:100746009F3F19F426F40C94FE060EF4E095E7FBA1
:100756000C94E006E92F0E943E0658F3BA1762078A
:1007660073078407950720F079F4A6F50C94D9064B
:100776000EF4E0950B2EBA2FA02D0B01B9019001B6
:100786000C01CA01A0011124FF27591B99F0593FFA
:1007960050F4503E68F11A16F040A22F232F342F42
:1007A6004427585FF3CF469537952795A795F04090
:1007B6005395C9F77EF41F16BA0B620B730B840BA5
:1007C600BAF09150A1F0FF0FBB1F661F771F881F5D
:1007D600C2F70EC0BA0F621F731F841F48F48795B5
:1007E60077956795B795F7959E3F08F0B0CF9395A7
:0E07F600880F08F09927EE0F979587950895C4
:10080400833421F1843409F43FC0823409F058C0A0
:100814004330510569F424B181E090E0062E02C012
:10082400880F991F0A94E2F78095822384B90EC039
:100834004430510559F424B181E090E0062E02C001
:10084400880F991F0A94E2F7822B84B9433051052B
:1008540069F427B181E090E0062E02C0880F991F49
:100864000A94E2F78095822387B90EC0443051057B
:1008740059F427B181E090E0062E02C0880F991F39
:100884000A94E2F7822B87B94330510561F42AB107
:1008940081E090E002C0880F991F6A95E2F7809585
:1008A40082238AB908954430510551F42AB181E074
:1008B40090E002C0880F991F6A95E2F7822B8AB9EB
:0208C400089595
:1008C600CF92DF92EF92FF928091080190E08058DC
:1008D6009109BC0112F46D5F7F4F7595679575950B
:1008E6006795072E000C880B990B0E94180520E0CF
:1008F60030E040E053E40E94C5066B017C0120E035
:1009060030E0A9010E94EC068823CCF08091030117
:1009160090E0FC01EE0FFF1FE80FF91FEE0FFF1F1F
:10092600EE0FFF1FE55FFE4F64817581868197811B
:1009360020E030E0A9010E94EC06811104C080E8A5
:100946008093090114C020E030E04FE753E4C7016B
:10095600B6010E94F106181624F48FEF8093090160
:1009660006C0C701B6010E94BE0560930901FF904B
:08097600EF90DF90CF9008958F
:10097E0080917A0086FD52C0E09107018E2F90E0A3
:10098E0089309105E0F5FC01EC5CFF4F0C94E60616
:10099E00809179008093080181E08093070131C036
:1009AE00809179008093020182E08093070129C033
:1009BE00809179008093370283E08093070121C0F4
:1009CE00809179008093000184E08093070119C023
:1009DE00809179008093010187E08093070111C017
:1009EE00809179008093040188E08093070109C00B
:1009FE008091790080930A011092070102C0109233
:100A0E000701ECE7F0E08081807F90910701892B50
:0E0A1E008083EAE7F0E08081806480830895A1
:100A2C00E89409C097FB3EF490958095709561957C
:100A3C007F4F8F4F9F4F9923A9F0F92F96E9BB2732
:100A4C009395F695879577956795B795F111F8CFAE
:100A5C00FAF4BB0F11F460FF1BC06F5F7F4F8F4F19
:100A6C009F4F16C0882311F096E911C0772321F00F
:100A7C009EE8872F762F05C0662371F096E8862FA7
:100A8C0070E060E02AF09A95660F771F881FDAF7FE
:0A0A9C00880F9695879597F9089545
:100AA6001F920F920FB60F9211242F933F934F93DD
:100AB6005F936F937F938F939F93AF93BF93EF93C0
:100AC600FF9363E084E40E948E05892B51F08091A8
:100AD6000501909106010196909306018093050108
:100AE60009C0809105019091060101979093060136
:100AF60080930501FF91EF91BF91AF919F918F91E7
:100B06007F916F915F914F913F912F910F900FBE03
:060B16000F901F901895DE
:100B1C00833489F08434E1F0823439F583B1282FA1
:100B2C0030E081E090E002C0880F991F6A95E2F7EF
:100B3C0082239323089586B1282F30E081E090E042
:100B4C0002C0880F991F6A95E2F7822393230895B8
:100B5C0089B1282F30E081E090E002C0880F991F06
:100B6C006A95E2F782239323089580E090E008953C
:100B7C000E94460688F09F5798F0B92F9927B751D5
:100B8C00B0F0E1F0660F771F881F991F1AF0BA9525
:100B9C00C9F714C0B13091F00E94D906B1E00895A4
:100BAC000C94D906672F782F8827B85F39F0B93F96
:100BBC00CCF3869577956795B395D9F73EF49095D8
:0E0BCC008095709561957F4F8F4F9F4F0895D4
:100BDA001F920F920FB60F9211242F933F934F93A8
:100BEA005F936F937F938F939F93AF93BF93EF938B
:100BFA00FF9383E68093B2000E946A000E94630416
:100C0A000E943E010E94BB06FF91EF91BF91AF91F6
:100C1A009F918F917F916F915F914F913F912F910A
:0A0C2A000F900FBE0F901F90189559
:100C3400990F0008550FAA0BE0E8FEEF16161706E9
:100C4400E807F907C0F012161306E407F50798F051
:100C5400621B730B840B950B39F40A2661F0232B6A
:100C6400242B252B21F408950A2609F4A140A695E6
:080C74008FEF811D811D089521
:100C7C0057FD9058440F551F59F05F3F71F0479541
:100C8C00880F97FB991F61F09F3F79F08795089526
:100C9C00121613061406551FF2CF4695F1DF08C045
:100CAC00161617061806991FF1CF86957105610562
:040CBC0008940895FB
:100CC000EEE7F0E080818F638083ECE7F0E08081E5
:100CD0008F7180668083EAE7F0E0808188738468A2
:100CE0008083EBE7F0E08081887F846080830895D3
:100CF0000E9453020E94AE060E9460060E948B066C
:100D000078940E94BF048091000190E09093890044
:060D100080938800F6CF7D
:100D1600E0EBF0E080818C70836080838081807F4F
:100D260087608093B10083E68093B20081E0809370
:040D360070000895AC
:100D3A00092E0394000C11F4882352F0BB0F40F4DF
:100D4A00BF2B11F460FF04C06F5F7F4F8F4F9F4F1F
:020D5A000895FA
:100D5C00E0E8F0E080818C70816A8083E1E8F0E06B
:0A0D6C008081807E8A6080830895F4
:100D760080918A0090918B009093890080938800DF
:020D86000895CE
:0E0D88005058BB27AA270E949B030C949D067F
:0E0D960000240A94161617061806090608957A
:0E0DA40000240A94121613061406050608957C
:0E0DB200E894BB2766277727CB0197F90895B1
:0C0DC00097F99F6780E870E060E00895FC
:0C0DCC00EE0FFF1F0590F491E02D09943C
:0A0DD8000E941A0608F481E0089555
:0A0DE2000E941A0608F48FEF08952E
:080DEC000E94C2020C949D0656
:080DF4000E9431030C949D06DE
:060DFC009FEF80EC08955A
:040E02000C9400004C
:00000001FF
