:100000000C9440000C94B5050C9457070C945707BA
:100010000C9457070C9457070C9457070C945707E8
:100020000C9457070C944F060C9457070C945707E1
:100030000C9457070C9457070C9457070C945707C8
:100040000C9457070C9457070C9457070C945707B8
:100050000C9457070C9457070C9457070C945707A8
:100060000C9457070C945707EC04F404FC040405A3
:100070000C052305230514051C050100014E800015
:1000800011241FBECFEFD8E0DEBFCDBFEAE7F0E01E
:1000900040E017C0B591A59135912591059107FDD7
:1000A0000CC095918591EF01F92FE82F05900D92E5
:1000B000A217B307D9F7FE0104C01D92A217B30718
:1000C000E1F7EF37F40731F70E9408070C94680056
:0400D000F894FFCFD2
:1000D400EF92FF920F931F93CF93DF93E09003016E
:1000E4000E2D10E0E801CC0FDD1FC00FD11FCC0F87
:1000F400DD1FCC0FDD1FC55FDE4F609105017091E0
:100104000601072E000C880B990B0E947A05688360
:1001140079838A839B8310920601109205011C82C5
:100124001D821E821F82F12C27C08F2D90E0FC01BE
:10013400EE0FFF1FE80FF91FEE0FFF1FEE0FFF1F5B
:10014400E55FFE4F2081318142815381E801CC0F6C
:10015400DD1FC00FD11FCC0FDD1FCC0FDD1FC55F0E
:10016400DE4F6C817D818E819F810E9415076C8397
:100174007D838E839F83F39424E02F15B0F6E801EA
:10018400CC0FDD1FC00FD11FCC0FDD1FCC0FDD1F27
:10019400C55FDE4F20E030E040EA50E46C817D81B1
:1001A4008E819F810E944C076C837D838E839F8305
:1001B40023E02E15F8F098012F5F3F4FF901EE0F61
:1001C400FF1FE20FF31FEE0FFF1FEE0FFF1FE55F90
:1001D400FE4F24813581468157810E94140720E017
:1001E40030E040EA50E40E944C07688779878A87A8
:1001F4009B871FC020910F01309110014091110184
:10020400509112010E94140720E030E040EA50E4CB
:100214000E944C07F801EE0FFF1FE00FF11FEE0FD5
:10022400FF1FEE0FFF1FE55FFE4F60877187828718
:10023400938780914901811117C0F801EE0FFF1FC8
:10024400DF01A00FB11FAA0FBB1FAA0FBB1FA55F21
:10025400BE4F14961D921D921D921C921797FD017C
:10026400108611861286138681E08E0D8093030119
:10027400853028F081E08093490110920301DF91D9
:0C028400CF911F910F91FF90EF90089513
:100290008F929F92AF92BF92CF92DF92EF92FF9296
:1002A000CF93DF93C0910301D0E0FE01EE0FFF1F5B
:1002B000EC0FFD1FEE0FFF1FEE0FFF1FE55FFE4F60
:1002C000C480D580E680F78020E030E048E453E445
:1002D000C701B6010E944207882354F5C701B60141
:1002E0000E943C07BC01990F880B990B0E947A056C
:1002F000A70196010E9450076B017C0160910201E9
:1003000070E080E090E00E947A05A70196010E94CB
:10031000500720E030E44CE959E40E944C0720E00B
:1003200030E040E053E40E9415076B017C0107C0F8
:100330000F2EC12CD12CE12CF3E4FF2EF02D809157
:10034000080190E080589109BC0112F46F5F7F4F63
:1003500075956795072E000C880B990B0E947A05FE
:10036000A70196010E9415076B017C01CE01880F41
:10037000991FC80FD91FCC0FDD1FCC0FDD1FC55F24
:10038000DE4F88849984AA84BB846091040170E064
:1003900080E090E00E947A05A50194010E94500738
:1003A00020E030E040EA50E40E9450079B01AC019D
:1003B000C701B6010E9415076B017C0120E030E007
:1003C000A9010E94420788231CF41092090114C05D
:1003D00020E030E04FE753E4C701B6010E94470731
:1003E000181624F48FEF8093090106C0C701B601E7
:1003F0000E94200660930901DF91CF91FF90EF905A
:0E040000DF90CF90BF90AF909F908F900895A7
:10040E00CF92DF92EF92FF926091090170E080919E
:10041E000001681B7109072E000C880B990B0E94B6
:10042E007A052AE037ED43EA5BE30E9450072091FC
:10043E004A0130914B0140914C0150914D010E9467
:10044E0015076B017C0160934A0170934B018093F9
:10045E004C0190934D0120E030E040E852EC0E94B8
:10046E00420788236CF480E090E0A0E8B2EC809321
:10047E004A0190934B01A0934C01B0934D0116C0CD
:10048E0020E030E040E852E4C701B6010E94470781
:10049E00181664F480E090E0A0E8B2E480934A017C
:1004AE0090934B01A0934C01B0934D01C0904A0123
:1004BE00D0904B01E0904C01F0904D0120E030E0E7
:1004CE00A901C701B6010E9442078823B4F4C701EF
:1004DE00B60190580E94200670938B0060938A009C
:1004EE0041E050E064E084E40E94B70240E050E056
:1004FE0060E082E40E94B7022EC020E030E0A90145
:10050E00C701B6010E9447071816ACF4C701B60121
:10051E000E94200670938B0060938A0040E050E0AA
:10052E0064E084E40E94B70241E050E060E082E4BF
:10053E000E94B70210C010928B0010928A0041E008
:10054E0050E064E084E40E94B70241E050E060E0D5
:10055E0082E40E94B702FF90EF90DF90CF90089553
:10056E00833481F1843409F457C0823409F07BC09E
:10057E004130510561F425B181E090E0062E02C0B4
:10058E00880F991F0A94E2F7822B85B91BC042305F
:10059E00510561F425B181E090E0062E02C0880F6E
:1005AE00991F0A94E2F7822785B90CC025B181E024
:1005BE0090E0062E02C0880F991F0A94E2F78095EC
:1005CE00822385B94130510561F428B181E090E074
:1005DE00062E02C0880F991F0A94E2F7822B88B963
:1005EE001BC04230510561F428B181E090E0062E27
:1005FE0002C0880F991F0A94E2F7822788B90CC0AF
:10060E0028B181E090E0062E02C0880F991F0A944F
:10061E00E2F78095822388B94130510559F42BB108
:10062E0081E090E002C0880F991F6A95E2F7822B55
:10063E008BB908954230510559F42BB181E090E009
:10064E0002C0880F991F6A95E2F782278BB9089529
:10065E002BB181E090E002C0880F991F6A95E2F7F6
:08066E00809582238BB90895E9
:1006760010C00E94220758F00E941B0740F029F480
:100686005F3F29F00C94300751110C942A070C9403
:1006960054070E949E0668F39923B1F3552391F3FC
:1006A600951B550BBB27AA2762177307840738F0DB
:1006B6009F5F5F4F220F331F441FAA1FA9F335D038
:1006C6000E2E3AF0E0E832D091505040E695001CEC
:1006D600CAF72BD0FE2F29D0660F771F881FBB1FA6
:1006E600261737074807AB07B0E809F0BB0B802D84
:1006F600BF01FF2793585F4F3AF09E3F510578F0B0
:100706000C9430070C942A075F3FE4F3983ED4F329
:10071600869577956795B795F7959F5FC9F7880F83
:10072600911D9695879597F90895E1E0660F771FD5
:10073600881FBB1F621773078407BA0720F0621B66
:0E074600730B840BBA0BEE1F88F7E095089535
:100754000FC00E941B0738F00E94220720F0952347
:1007640011F00C9430070C94540711240C942A07AC
:100774000E949E0670F3959FC1F3950F50E0551F9C
:10078400629FF001729FBB27F00DB11D639FAA27E2
:10079400F00DB11DAA1F649F6627B00DA11D661F31
:1007A400829F2227B00DA11D621F739FB00DA11D52
:1007B400621F839FA00D611D221F749F3327A00D0C
:1007C400611D231F849F600D211D822F762F6A2FA8
:1007D40011249F5750409AF0F1F088234AF0EE0F0D
:1007E400FF1FBB1F661F771F881F91505040A9F73A
:1007F4009E3F510580F00C9430070C942A075F3F0C
:10080400E4F3983ED4F3869577956795B795F79575
:10081400E7959F5FC1F7FE2B880F911D96958795ED
:0408240097F90895A3
:1008280011C00E941B0738F00E94220720F039F4FB
:100838009F3F19F426F40C9454070EF4E095E7FB57
:100848000C943007E92F0E949E0658F3BA176207E6
:1008580073078407950720F079F4A6F50C94290707
:100868000EF4E0950B2EBA2FA02D0B01B9019001C3
:100878000C01CA01A0011124FF27591B99F0593F07
:1008880050F4503E68F11A16F040A22F232F342F4F
:100898004427585FF3CF469537952795A795F0409D
:1008A8005395C9F77EF41F16BA0B620B730B840BB2
:1008B800BAF09150A1F0FF0FBB1F661F771F881F6A
:1008C800C2F70EC0BA0F621F731F841F48F48795C2
:1008D80077956795B795F7959E3F08F0B0CF9395B4
:0E08E800880F08F09927EE0F979587950895D1
:1008F600833421F1843409F43FC0823409F058C0AE
:100906004330510569F424B181E090E0062E02C01F
:10091600880F991F0A94E2F78095822384B90EC046
:100926004430510559F424B181E090E0062E02C00E
:10093600880F991F0A94E2F7822B84B94330510538
:1009460069F427B181E090E0062E02C0880F991F56
:100956000A94E2F78095822387B90EC04430510588
:1009660059F427B181E090E0062E02C0880F991F46
:100976000A94E2F7822B87B94330510561F42AB114
:1009860081E090E002C0880F991F6A95E2F7809592
:1009960082238AB908954430510551F42AB181E081
:1009A60090E002C0880F991F6A95E2F7822B8AB9F8
:0209B6000895A2
:1009B80080917A0086FD52C0E09107018E2F90E069
:1009C80089309105E0F5FC01EC5CFF4F0C9436078B
:1009D800809179008093080181E08093070131C0FC
:1009E800809179008093020182E08093070129C0F9
:1009F800809179008093470183E08093070121C0AB
:100A0800809179008093000184E08093070119C0E8
:100A1800809179008093010187E08093070111C0DC
:100A2800809179008093040188E08093070109C0D0
:100A38008091790080930A011092070102C01092F8
:100A48000701ECE7F0E08081807F90910701892B16
:0E0A58008083EAE7F0E0808180648083089567
:100A6600E9E6F0E08081836080838DB381608DBB91
:100A760043E050E064E083E40E947B0443E050E0FE
:100A860062E083E40E947B0443E050E063E083E499
:100A96000E947B0443E050E061E083E40E947B0413
:100AA60043E050E060E083E40E947B0443E050E0D2
:100AB60067E083E40E947B0443E050E067E084E45F
:100AC6000E947B0443E050E063E084E40E947B04E0
:100AD60043E050E062E084E40E947B048AB18367CD
:0A0AE6008AB984B1876084B90895CD
:100AF000E89409C097FB3EF49095809570956195B8
:100B00007F4F8F4F9F4F9923A9F0F92F96E9BB276D
:100B10009395F695879577956795B795F111F8CFE9
:100B2000FAF4BB0F11F460FF1BC06F5F7F4F8F4F54
:100B30009F4F16C0882311F096E911C0772321F04A
:100B40009EE8872F762F05C0662371F096E8862FE2
:100B500070E060E02AF09A95660F771F881FDAF739
:0A0B6000880F9695879597F9089580
:100B6A001F920F920FB60F9211242F933F934F9318
:100B7A005F936F937F938F939F93AF93BF93EF93FB
:100B8A00FF9363E084E40E94F005892B51F0809181
:100B9A000501909106010196909306018093050143
:100BAA0009C0809105019091060101979093060171
:100BBA0080930501FF91EF91BF91AF919F918F9122
:100BCA007F916F915F914F913F912F910F900FBE3F
:060BDA000F901F9018951A
:100BE000833489F08434E1F0823439F583B1282FDD
:100BF00030E081E090E002C0880F991F6A95E2F72B
:100C000082239323089586B1282F30E081E090E07D
:100C100002C0880F991F6A95E2F7822393230895F3
:100C200089B1282F30E081E090E002C0880F991F41
:100C30006A95E2F782239323089580E090E0089577
:100C40000E94A60688F09F5798F0B92F9927B751B0
:100C5000B0F0E1F0660F771F881F991F1AF0BA9560
:100C6000C9F714C0B13091F00E942907B1E008958E
:100C70000C942907672F782F8827B85F39F0B93F80
:100C8000CCF3869577956795B395D9F73EF4909513
:0E0C90008095709561957F4F8F4F9F4F08950F
:100C9E001F920F920FB60F9211242F933F934F93E3
:100CAE005F936F937F938F939F93AF93BF93EF93C6
:100CBE00FF9383E68093B2000E946A000E9448016F
:100CCE000E940702FF91EF91BF91AF919F918F917B
:100CDE007F916F915F914F913F912F910F900FBE2A
:060CEE000F901F90189505
:100CF400990F0008550FAA0BE0E8FEEF1616170629
:100D0400E807F907C0F012161306E407F50798F090
:100D1400621B730B840B950B39F40A2661F0232BA9
:100D2400242B252B21F408950A2609F4A140A69525
:080D34008FEF811D811D089560
:100D3C0057FD9058440F551F59F05F3F71F0479580
:100D4C00880F97FB991F61F09F3F79F08795089565
:100D5C00121613061406551FF2CF4695F1DF08C084
:100D6C00161617061806991FF1CF869571056105A1
:040D7C00089408953A
:100D8000EEE7F0E080818F638083ECE7F0E0808124
:100D90008F7180668083EAE7F0E0808188738468E1
:100DA0008083EBE7F0E08081887F84608083089512
:100DB000E0EBF0E080818C70836080838081807FB5
:100DC00087608093B10083E68093B20081E08093D6
:040DD0007000089512
:100DD400092E0394000C11F4882352F0BB0F40F445
:100DE400BF2B11F460FF04C06F5F7F4F8F4F9F4F85
:020DF400089560
:100DF600E0E8F0E080818C70816A8083E1E8F0E0D1
:0A0E06008081807E8A608083089559
:100E10000E9433050E94FB060E94C0060E94D8066D
:080E200078940E94DC04FDCF70
:0E0E28005058BB27AA270E9414040C94EA0617
:0E0E360000240A9416161706180609060895D9
:0E0E440000240A9412161306140605060895DB
:0E0E5200E894BB2766277727CB0197F9089510
:0C0E600097F99F6780E870E060E008955B
:0C0E6C00EE0FFF1F0590F491E02D09949B
:0C0E780097FF03C09195819591090895A2
:0A0E84000E947A0608F481E0089548
:0A0E8E000E947A0608F48FEF089521
:080E98000E943B030C94EA06E2
:080EA0000E94AA030C94EA066B
:060EA8009FEF80EC0895AD
:040EAE000C940000A0
:00000001FF
