:100000000C9440000C9415020C94FD020C94FD021B
:100010000C94FD020C94FD020C94FD020C94FD0264
:100020000C94FD020C9478020C94FD020C94FD02D9
:100030000C94FD020C94FD020C94FD020C94FD0244
:100040000C94FD020C94FD020C94FD020C94FD0234
:100050000C94FD020C94FD020C94FD020C94FD0224
:100060000C94FD020C94FD02CE01D601DE01E601E6
:10007000EE0105020502F601FE010100010A800001
:1000800011241FBECFEFD8E0DEBFCDBFEAE7F0E01E
:1000900040E017C0B591A59135912591059107FDD7
:1000A0000CC095918591EF01F92FE82F05900D92E5
:1000B000A217B307D9F7FE0104C01D92A217B30718
:1000C000E1F7EF37F40731F70E949F020C946800C4
:0400D000F894FFCFD2
:1000D400833481F1843409F457C0823409F07BC03D
:1000E4004130510561F425B181E090E0062E02C053
:1000F400880F991F0A94E2F7822B85B91BC04230FE
:10010400510561F425B181E090E0062E02C0880F0C
:10011400991F0A94E2F7822785B90CC025B181E0C2
:1001240090E0062E02C0880F991F0A94E2F780958A
:10013400822385B94130510561F428B181E090E012
:10014400062E02C0880F991F0A94E2F7822B88B901
:100154001BC04230510561F428B181E090E0062EC5
:1001640002C0880F991F0A94E2F7822788B90CC04D
:1001740028B181E090E0062E02C0880F991F0A94EE
:10018400E2F78095822388B94130510559F42BB1A7
:1001940081E090E002C0880F991F6A95E2F7822BF4
:1001A4008BB908954230510559F42BB181E090E0A8
:1001B40002C0880F991F6A95E2F782278BB90895C8
:1001C4002BB181E090E002C0880F991F6A95E2F795
:0801D400809582238BB9089588
:1001DC0044E050E061E084E40E945D0144E050E0C2
:1001EC0060E084E40E945D0144E050E061E082E460
:1001FC000E945D0144E050E060E082E40E945D01F9
:10020C0044E050E064E084E40E945D0144E050E08E
:10021C0062E082E40E945D0143E050E064E083E42C
:10022C000E945D0143E050E062E083E40E945D01C6
:10023C0043E050E063E083E40E945D0143E050E062
:10024C0061E083E40E945D0143E050E060E083E400
:10025C000E945D0143E050E067E083E40E945D0191
:10026C0043E050E067E084E40E945D0144E050E02C
:10027C0065E084E40E945D0144E050E066E084E4C3
:10028C000E945D0143E050E063E084E40E945D0164
:10029C0043E050E062E084E40E945D01E9E6F0E0B6
:0E02AC008081836080838DB381608DBB089557
:1002BA00833421F1843409F43FC0823409F058C0F0
:1002CA004330510569F424B181E090E0062E02C062
:1002DA00880F991F0A94E2F78095822384B90EC089
:1002EA004430510559F424B181E090E0062E02C051
:1002FA00880F991F0A94E2F7822B84B9433051057B
:10030A0069F427B181E090E0062E02C0880F991F98
:10031A000A94E2F78095822387B90EC044305105CA
:10032A0059F427B181E090E0062E02C0880F991F88
:10033A000A94E2F7822B87B94330510561F42AB156
:10034A0081E090E002C0880F991F6A95E2F78095D4
:10035A0082238AB908954430510551F42AB181E0C3
:10036A0090E002C0880F991F6A95E2F7822B8AB93A
:02037A000895E4
:10037C0080917A0086FD52C0E09105018E2F90E0AD
:10038C0089309105E0F5FC01EC5CFF4F0C94F70211
:10039C00809179008093060181E08093050131C042
:1003AC00809179008093020182E08093050129C03D
:1003BC00809179008093080183E08093050121C02E
:1003CC00809179008093000184E08093050119C02D
:1003DC00809179008093010187E08093050111C021
:1003EC00809179008093030188E08093050109C016
:1003FC0080917900809307011092050102C0109240
:10040C000501ECE7F0E08081807F90910501892B5C
:0E041C008083EAE7F0E08081806480830895A9
:10042A001F920F920FB60F9211242F933F934F935F
:10043A005F936F937F938F939F93AF93BF93EF9342
:10044A00FF9363E084E40E944802892B31F0809193
:10045A0004018F5F8093040105C0809104018150DB
:10046A0080930401FF91EF91BF91AF919F918F917A
:10047A007F916F915F914F913F912F910F900FBE96
:06048A000F901F90189571
:10049000833489F08434E1F0823439F583B1282F34
:1004A00030E081E090E002C0880F991F6A95E2F782
:1004B00082239323089586B1282F30E081E090E0D5
:1004C00002C0880F991F6A95E2F78223932308954B
:1004D00089B1282F30E081E090E002C0880F991F99
:1004E0006A95E2F782239323089580E090E00895CF
:1004F0001F920F920FB60F9211242F933F934F9399
:100500005F936F937F938F939F93AF93BF93EF937B
:10051000FF9383E68093B2000E94EF02FF91EF9178
:10052000BF91AF919F918F917F916F915F914F910B
:0E0530003F912F910F900FBE0F901F901895C6
:10053E000E94EE000E94E2020E94B8020E94D002C7
:10054E0078940E94BE0141E050E064E084E40E9491
:10055E006A008091000190E090938900809388005A
:02056E00F0CFCC
:10057000EEE7F0E080818F638083ECE7F0E080813C
:100580008F7180668083EAE7F0E0808188738468F9
:100590008083EBE7F0E08081887F8460808308952A
:1005A000E0EBF0E080818C70836080838081807FCD
:1005B00087608093B10083E68093B20081E08093EE
:0405C000700008952A
:1005C400E0E8F0E080818C70816A8083E1E8F0E00B
:0A05D4008081807E8A608083089594
:1005DE008091020190E090938B0080938A000895A1
:0C05EE00EE0FFF1F0590F491E02D099422
:0405FA000C9400005D
:00000001FF
