:100000000C9437000C94B5010C94B0020C94B0021F
:100010000C94B0020C94B0020C94B0020C94B00298
:100020000C94B0020C944A020C94B0020C94B002EE
:100030000C94B0020C94B0020C94B0020C94B00278
:100040000C94B0020C94B0020C94B0020C94B00268
:100050000C94B0020C94B0020C94B0020C94B00258
:100060000C94B0020C94B002010001028000112433
:100070001FBECFEFD8E0DEBFCDBFE8E6F0E040E046
:1000800017C0B591A59135912591059107FD0CC03B
:1000900095918591EF01F92FE82F05900D92A21708
:1000A000B307D9F7FE0104C01D92A217B307E1F709
:1000B000ED36F40731F70E94E8010C945F00F894E4
:0200C000FFCF70
:1000C200833481F1843409F457C0823409F07BC04F
:1000D2004130510561F425B181E090E0062E02C065
:1000E200880F991F0A94E2F7822B85B91BC0423010
:1000F200510561F425B181E090E0062E02C0880F1F
:10010200991F0A94E2F7822785B90CC025B181E0D4
:1001120090E0062E02C0880F991F0A94E2F780959C
:10012200822385B94130510561F428B181E090E024
:10013200062E02C0880F991F0A94E2F7822B88B913
:100142001BC04230510561F428B181E090E0062ED7
:1001520002C0880F991F0A94E2F7822788B90CC05F
:1001620028B181E090E0062E02C0880F991F0A9400
:10017200E2F78095822388B94130510559F42BB1B9
:1001820081E090E002C0880F991F6A95E2F7822B06
:100192008BB908954230510559F42BB181E090E0BA
:1001A20002C0880F991F6A95E2F782278BB90895DA
:1001B2002BB181E090E002C0880F991F6A95E2F7A7
:0801C200809582238BB908959A
:1001CA0044E050E060E082E40E94540144E050E0E0
:1001DA0064E084E40E94540144E050E062E082E476
:1001EA000E94540144E050E061E084E40E9454011A
:1001FA0044E050E060E084E40E94540144E050E0AE
:10020A0061E082E40E94540143E050E064E083E448
:10021A000E94540143E050E062E083E40E945401EA
:10022A0043E050E063E083E40E94540143E050E07D
:10023A0061E083E40E94540143E050E060E083E41B
:10024A000E94540143E050E067E083E40E945401B5
:10025A0043E050E067E084E40E94540144E050E047
:10026A0065E084E40E94540144E050E066E084E4DE
:10027A000E94540143E050E063E084E40E94540188
:10028A0043E050E062E084E40E945401E9E6F0E0D1
:0E029A008081836080838DB381608DBB089569
:1002A800833421F1843409F43FC0823409F058C002
:1002B8004330510569F424B181E090E0062E02C074
:1002C800880F991F0A94E2F78095822384B90EC09B
:1002D8004430510559F424B181E090E0062E02C063
:1002E800880F991F0A94E2F7822B84B9433051058D
:1002F80069F427B181E090E0062E02C0880F991FAB
:100308000A94E2F78095822387B90EC044305105DC
:1003180059F427B181E090E0062E02C0880F991F9A
:100328000A94E2F7822B87B94330510561F42AB168
:1003380081E090E002C0880F991F6A95E2F78095E6
:1003480082238AB908954430510551F42AB181E0D5
:1003580090E002C0880F991F6A95E2F7822B8AB94C
:020368000895F6
:10036A001F920F920FB60F9211242F933F934F9320
:10037A005F936F937F938F939F93AF93BF93EF9303
:10038A00FF9363E084E40E941A02892B31F0809182
:10039A0000018F5F8093000105C0809100018150A8
:1003AA0080930001FF91EF91BF91AF919F918F913F
:1003BA007F916F915F914F913F912F910F900FBE57
:0603CA000F901F90189532
:1003D0000E94E5000E949B020E9471020E94890215
:1003E000789488EC90E0909389008093880082E371
:1003F00090E090938B0080938A0080917A0086FD34
:100400000BC0ECE7F0E08081807F81608083EAE7C9
:10041000F0E080818064808341E050E064E084E427
:100420000E9461008091790090E090938B0080930E
:040430008A00E3CF8C
:10043400833489F08434E1F0823439F583B1282F90
:1004440030E081E090E002C0880F991F6A95E2F7DE
:1004540082239323089586B1282F30E081E090E031
:1004640002C0880F991F6A95E2F7822393230895A7
:1004740089B1282F30E081E090E002C0880F991FF5
:100484006A95E2F782239323089580E090E008952B
:100494001F920F920FB60F9211242F933F934F93F5
:1004A4005F936F937F938F939F93AF93BF93EF93D8
:1004B400FF9383E68093B2000E94A802FF91EF911C
:1004C400BF91AF919F918F917F916F915F914F9168
:0E04D4003F912F910F900FBE0F901F90189523
:1004E200EEE7F0E080818F638083ECE7F0E08081CB
:1004F2008F7180668083EAE7F0E080818873846888
:100502008083EBE7F0E08081887F846080830895B8
:10051200E0EBF0E080818C70836080838081807F5B
:1005220087608093B10083E68093B20081E080937C
:0405320070000895B8
:10053600E0E8F0E080818C70816A8083E1E8F0E099
:0A0546008081807E8A608083089522
:100550008091000190E09093890080938800089535
:040560000C940000F7
:00000001FF
